:100000000C9498000C94AA000C94AA000C94AA00DA
:100010000C94AA000C94AA000C94AA000C94AA00B8
:100020000C94AA000C94AA000C94AA000C94AA00A8
:100030000C94AA000C94AA000C94AA000C94AA0098
:100040000C9415020C94AA000C94AA000C94AA001B
:100050000C94AA000C94AA000C94AA000C94AA0078
:100060000C94AA000C94AA000000000800020100F1
:10007000000304070000000000000000C0A00060B2
:1000800004E010021C07123732292D29252B3900D4
:10009000010310E110031D07062E2C292D2E2E37EB
:1000A0003F0000021013800A298064022A04000124
:1000B00000A02B04000200810F1180961180FFB177
:1000C00003012C2DB203012C2DB306012C2D012C84
:1000D0002DB40107C003A20284C101C5C2020A00F7
:1000E000C3028A2AC4028AEEC5010E20003601C866
:1000F0003A010500000000250028002B0000000048
:1001000000240027002A0004040404040404040258
:1001100002020202020303030303030102040810A4
:100120002040800102040810200102040810200071
:1001300011241FBECFEFD8E0DEBFCDBF21E0A0E08D
:10014000B1E001C01D92A930B207E1F70E945F0241
:100150000C94CB030C94000090E0FC01E55EFE4F94
:100160002491895F9E4FFC018491882399F090E04F
:10017000880F991FFC01E350FF4FA591B491FC013A
:10018000ED50FF4F859194918FB7F894EC91E22B4D
:10019000EC938FBF089590E0FC01E859FF4F249144
:1001A000FC01E55EFE4F3491FC01E95FFE4FE491F6
:1001B000EE23C9F0222339F0233001F1A8F42130D5
:1001C00019F1223029F1F0E0EE0FFF1FED50FF4F43
:1001D000A591B4918FB7F894EC91611126C0309538
:1001E0003E233C938FBF08952730A9F02830C9F0F3
:1001F000243049F7809180008F7D03C0809180007A
:100200008F7780938000DFCF84B58F7784BDDBCF7D
:1002100084B58F7DFBCF8091B0008F778093B00045
:10022000D2CF8091B0008F7DF9CF3E2BDACF0F93E4
:100230001F93CF93DF938C01C8E0D0E0B801660F25
:10024000672F661F770B7195617083E00E94CB006A
:1002500061E082E00E94CB0060E082E00E94CB007F
:10026000000F111F219751F7DF91CF911F910F912F
:1002700008953FB7F8948091050190910601A091EF
:100280000701B091080126B5A89B05C02F3F19F0C2
:100290000196A11DB11D3FBFBA2FA92F982F882706
:1002A000BC01CD01620F711D811D911D42E0660FE1
:1002B000771F881F991F4A95D1F708958F929F92B3
:1002C000AF92BF92CF92DF92EF92FF926B017C01CF
:1002D0000E9439014B015C01C114D104E104F10415
:1002E000B9F00E943901681979098A099B09683EA9
:1002F00073408105910580F321E0C21AD108E1081D
:10030000F10888EE880E83E0981EA11CB11CE4CF92
:10031000FF90EF90DF90CF90BF90AF909F908F9025
:100320000895EF92FF920F931F93CF93DF93C82FFF
:100330007B018A0160E086E00E94CB0060E085E0FE
:100340000E94CB008C2F90E00E94170161E085E0B5
:100350000E94CB00E7010E0D1F1DC017D10739F019
:10036000FE01849190E00E9417012196F6CF61E092
:1003700086E0DF91CF911F910F91FF90EF900C9449
:10038000CB009F92AF92BF92CF92DF92EF92FF92FB
:100390000F931F93CF93DF93EC01FC01E490F12CBA
:1003A00010E000E041E050E00E151F0590F5FE0161
:1003B000E40FF51F84915A01F2E0AF0EB11CFA016F
:1003C0003196EC0FFD1F9490492D4F77C42ED12C00
:1003D000BE016A0D7B1DA6010E949101A5014C0D75
:1003E0005D1D97FE13C06A018FEFC81AD80AFE017F
:1003F000E40FF51F649170E06F3F710511F464EF35
:1004000071E090E080E00E945E01A6010F5F1F4F47
:10041000CBCFDF91CF911F910F91FF90EF90DF90A5
:10042000CF90BF90AF909F9008951F920F920FB6FC
:100430000F9211242F933F938F939F93AF93BF936A
:100440008091010190910201A0910301B0910401FA
:100450003091000123E0230F2D3758F50196A11D9F
:10046000B11D209300018093010190930201A0939C
:100470000301B09304018091050190910601A091C0
:100480000701B09108010196A11DB11D80930501DE
:1004900090930601A0930701B0930801BF91AF911B
:1004A0009F918F913F912F910F900FBE0F901F90B2
:1004B000189526E8230F0296A11DB11DD2CF78947E
:1004C00084B5826084BD84B5816084BD85B5826059
:1004D00085BD85B5816085BD80916E00816080930A
:1004E0006E00109281008091810082608093810073
:1004F0008091810081608093810080918000816083
:10050000809380008091B10084608093B1008091DD
:10051000B00081608093B00080917A008460809305
:100520007A0080917A00826080937A0080917A00CC
:10053000816080937A0080917A00806880937A004D
:100540001092C10080E00E94AC0081E00E94AC00EB
:1005500082E00E94AC0083E00E94AC0084E00E9434
:10056000AC0085E00E94AC0086E00E94AC0087E011
:100570000E94AC0060E080E00E94CB0060E081E07F
:100580000E94CB0060E082E00E94CB0060E083E04C
:100590000E94CB0060E084E00E94CB0060E085E038
:1005A0000E94CB0060E086E00E94CB0060E087E024
:1005B0000E94CB0061E081E00E94CB0061E084E01A
:1005C0000E94CB0061E087E00E94CB0060E083E006
:1005D0000E94CB0060E082E00E94CB0061E084E0FA
:1005E0000E94CB0064E670E080E090E00E945E0133
:1005F00060E084E00E94CB0064E670E080E090E080
:100600000E945E0161E084E00E94CB0068EC70E033
:1006100080E090E00E945E0161E086E00E94CB00F5
:1006200088EB90E00E94C1018BEA90E00E94C1013A
:1006300080E890E00E94C10141E050E06CE770E08A
:1006400086E30E94910141E050E06DE770E086E3AF
:100650000E94910150E040E070E060E08CE20E9476
:10066000910160E086E00E94CB00F89480E090E584
:1006700020E02BB127FD286027FF277F24602BB9BE
:100680002B7F2BB926FD286026FF277F24602BB9FE
:100690002B7F2BB925FD286025FF277F24602BB9F0
:1006A0002B7F2BB924FD286024FF277F24602BB9E2
:1006B0002B7F2BB923FD286023FF277F24602BB9D4
:1006C0002B7F2BB922FD286022FF277F24602BB9C6
:1006D0002B7F2BB921FD286021FF277F24602BB9B8
:1006E0002B7F2BB920FD286020FF277F24602BB9AA
:1006F0002B7F2BB927FD286027FF277F24602BB98C
:100700002B7F2BB926FD286026FF277F24602BB97D
:100710002B7F2BB925FD286025FF277F24602BB96F
:100720002B7F2BB924FD286024FF277F24602BB961
:100730002B7F2BB923FD286023FF277F24602BB953
:100740002B7F2BB922FD286022FF277F24602BB945
:100750002B7F2BB921FD286021FF277F24602BB937
:100760002B7F2BB920FD286020FF277F24602BB929
:100770002B7F2BB9019709F07CCF7894C0E0D0E0B3
:1007800068EE73E080E090E00E945E012097C1F384
:0A0790000E940000F5CFF894FFCF9F
:00000001FF
