:020000040000FA
:100000000C9499000C94C1000C94C1000C94C10094
:100010000C94C1000C94C1000C94C1000C94C1005C
:100020000C94C1000C94C1000C94C1000C94C1004C
:100030000C94C1000C94C1000C94C1000C94C1003C
:100040000C9499030C94C1000C9467030C94410325
:100050000C94C1000C94C1000C94C1000C94C1001C
:100060000C94C1000C94C1000000000800020100C3
:10007000000304070000000000000000C0A00060B2
:1000800004E010021C07123732292D29252B3900D4
:10009000010310E110031D07062E2C292D2E2E37EB
:1000A0003F0000021013800A298064022A04000124
:1000B00000A02B04000200810F1180961180FFB177
:1000C00003012C2DB203012C2DB306012C2D012C84
:1000D0002DB40107C003A20284C101C5C2020A00F7
:1000E000C3028A2AC4028AEEC5010E20003601C866
:1000F0003A010500000000250028002B0000000048
:1001000000240027002A0004040404040404040258
:1001100002020202020303030303030102040810A4
:100120002040800102040810200102040810200071
:10013000F60511241FBECFEFD8E0DEBFCDBF11E022
:10014000A0E0B1E0E6E0F2E102C005900D92A83433
:10015000B107D9F721E0A8E4B1E001C01D92AE3E9D
:10016000B207E1F710E0C9E9D0E004C02197FE0131
:100170000E942306C839D107C9F70E94E3030C94F3
:1001800001090C94000090E0FC01E55EFE4F249113
:10019000895F9E4FFC018491882399F090E0880F3D
:1001A000991FFC01E350FF4FA591B491FC01ED5064
:1001B000FF4F859194918FB7F894EC91E22BEC93DB
:1001C0008FBF0895AF92BF92CF92DF92EF92FF92CE
:1001D0000F931F93CF93DF936C017B018B01040F6F
:1001E000151FEB015E01AE18BF08C017D10759F00B
:1001F0006991D601ED91FC910190F081E02DC6014D
:100200000995892B79F7C501DF91CF911F910F9146
:10021000FF90EF90DF90CF90BF90AF900895FC01DA
:10022000538D448D252F30E0842F90E0821B930B5B
:10023000541710F0CF96089501970895FC01918D01
:10024000828D981761F0A28DAE0FBF2FB11D5D9604
:100250008C91928D9F5F9F73928F90E008958FEFA6
:100260009FEF0895FC01918D828D981731F0828D5A
:10027000E80FF11D858D90E008958FEF9FEF0895B1
:10028000FC01918D228D892F90E0805C9F4F821B15
:1002900091098F739927089581E591E00E944001AB
:1002A00021E0892B09F420E0822F089580E090E07E
:1002B000892B29F00E944C0181110C9400000895B3
:1002C000FC01A48DA80FB92FB11DA35ABF4F2C91CB
:1002D000848D90E001968F739927848FA689B789C2
:1002E0002C93A089B1898C91837080648C93938DB9
:1002F000848D981306C00288F389E02D80818F7D5C
:1003000080830895EF92FF920F931F93CF93DF9313
:10031000EC0181E0888F9B8D8C8D98131AC0E88941
:10032000F989808185FF15C09FB7F894EE89FF8910
:100330006083E889F98980818370806480839FBFAE
:1003400081E090E0DF91CF911F910F91FF90EF90AE
:100350000895F62E0B8D10E00F5F1F4F0F731127BE
:10036000E02E8C8D8E110CC00FB607FCFACFE889F9
:10037000F989808185FFF5CFCE010E946001F1CF20
:10038000EB8DEC0FFD2FF11DE35AFF4FF0829FB76D
:10039000F8940B8FEA89FB8980818062CFCFCF935D
:1003A000DF93EC01888D8823B9F0AA89BB89E8899D
:1003B000F9898C9185FD03C0808186FD0DC00FB643
:1003C00007FCF7CF8C9185FFF2CF808185FFEDCFC1
:1003D000CE010E946001E9CFDF91CF91089590E0B6
:1003E000FC01E859FF4F2491FC01E55EFE4F34917A
:1003F000FC01E95FFE4FE491EE23C9F0222339F0BE
:10040000233001F1A8F4213019F1223029F1F0E074
:10041000EE0FFF1FED50FF4FA591B4918FB7F894E9
:10042000EC91611126C030953E233C938FBF089517
:100430002730A9F02830C9F0243049F78091800096
:100440008F7D03C0809180008F7780938000DFCF05
:1004500084B58F7784BDDBCF84B58F7DFBCF809152
:10046000B0008F778093B000D2CF8091B0008F7DA5
:10047000F9CF3E2BDACF0F931F93CF93DF938C01ED
:10048000C8E0D0E0B801660F672F661F770B719543
:10049000617083E00E94EF0161E082E00E94EF0161
:1004A00060E082E00E94EF01000F111F219751F7D9
:1004B000DF91CF911F910F9108953FB7F8948091EC
:1004C0004D0190914E01A0914F01B091500126B580
:1004D000A89B05C02F3F19F00196A11DB11D3FBF7C
:1004E000BA2FA92F982F8827BC01CD01620F711D4B
:1004F000811D911D42E0660F771F881F991F4A9545
:10050000D1F708958F929F92AF92BF92CF92DF92D0
:10051000EF92FF926B017C010E945D024B015C0136
:10052000C114D104E104F104B9F00E945D0268191C
:1005300079098A099B09683E73408105910580F31A
:1005400021E0C21AD108E108F10888EE880E83E0A4
:10055000981EA11CB11CE4CFFF90EF90DF90CF90CC
:10056000BF90AF909F908F900895EF92FF920F935E
:100570001F93CF93DF93C82F7B018A0160E086E051
:100580000E94EF0160E085E00E94EF018C2F90E077
:100590000E943B0261E085E00E94EF01E7010E0D41
:1005A0001F1DC017D10739F0FE01849190E00E9411
:1005B0003B022196F6CF61E086E0DF91CF911F915B
:1005C0000F91FF90EF900C94EF019F92AF92BF922A
:1005D000CF92DF92EF92FF920F931F93CF93DF930F
:1005E000EC01FC01E490F12C10E000E041E050E06F
:1005F0000E151F0590F5FE01E40FF51F84915A01B9
:10060000F2E0AF0EB11CFA013196EC0FFD1F949091
:10061000492D4F77C42ED12CBE016A0D7B1DA6013A
:100620000E94B502A5014C0D5D1D97FE13C06A0125
:100630008FEFC81AD80AFE01E40FF51F649170E02D
:100640006F3F710511F464EF71E090E080E00E946B
:100650008202A6010F5F1F4FCBCFDF91CF911F9179
:100660000F91FF90EF90DF90CF90BF90AF909F9051
:10067000089542E050E062E171E081E591E00C9480
:10068000E2001F920F920FB60F9211242F933F9307
:100690004F935F936F937F938F939F93AF93BF938A
:1006A000EF93FF9381E591E00E946001FF91EF914C
:1006B000BF91AF919F918F917F916F915F914F917A
:1006C0003F912F910F900FBE0F901F9018951F9282
:1006D0000F920FB60F9211242F938F939F93EF9346
:1006E000FF93E0916101F09162018081E0916701E7
:1006F000F091680182FD1BC0908180916A018F5F3B
:100700008F7320916B01821741F0E0916A01F0E054
:10071000EF5AFE4F958F80936A01FF91EF919F9161
:100720008F912F910F900FBE0F901F901895808181
:10073000F4CF1F920F920FB60F9211242F933F9375
:100740008F939F93AF93BF938091490190914A01FA
:10075000A0914B01B0914C013091480123E0230F4F
:100760002D3758F50196A11DB11D209348018093A6
:10077000490190934A01A0934B01B0934C018091A1
:100780004D0190914E01A0914F01B0915001019601
:10079000A11DB11D80934D0190934E01A0934F0177
:1007A000B0935001BF91AF919F918F913F912F9145
:1007B0000F900FBE0F901F90189526E8230F0296FA
:1007C000A11DB11DD2CFCF93DF93CDB7DEB7CF5FE1
:1007D000D1090FB6F894DEBF0FBECDBF789484B5B3
:1007E000826084BD84B5816084BD85B5826085BD2D
:1007F00085B5816085BD80916E00816080936E00BB
:1008000010928100809181008260809381008091AC
:10081000810081608093810080918000816080935D
:1008200080008091B10084608093B1008091B0001D
:1008300081608093B00080917A00846080937A0018
:1008400080917A00826080937A0080917A00816042
:1008500080937A0080917A00806880937A00109269
:10086000C100E0916101F091620182E08083E0913A
:100870005D01F0915E011082E0915F01F0916001F5
:1008800080E1808310926901E0916501F091660139
:1008900086E08083E0916301F09164018081806152
:1008A0008083E0916301F09164018081886080839E
:1008B000E0916301F0916401808180688083E09120
:1008C0006301F091640180818F7D808380E00E94CC
:1008D000C30081E00E94C30082E00E94C30083E065
:1008E0000E94C30084E00E94C30085E00E94C30010
:1008F00086E00E94C30087E00E94C30060E080E0C1
:100900000E94EF0160E081E00E94EF0160E082E080
:100910000E94EF0160E083E00E94EF0160E084E06C
:100920000E94EF0160E085E00E94EF0160E086E058
:100930000E94EF0160E087E00E94EF0161E081E04A
:100940000E94EF0161E084E00E94EF0161E087E036
:100950000E94EF0181E090E000E010E080301FB7DE
:1009600011FF026910E0989490301FB711FF0D76C7
:1009700010E00BB900E0882F992F08EB10E082EC13
:10098000A82E80E0B82E95E1C92E91E0D92ECE0197
:1009900001967C01F8019081E92FF0E08491F80143
:1009A00024911F928F931F922F931F929F93DF92F8
:1009B000CF92FF92EF920E942906F701019000204A
:1009C000E9F73197AF014E195F09B70181E591E071
:1009D0000E94E2000E9439030F5F1F4F0FB6F89488
:1009E000DEBF0FBECDBFA016B106A1F60E9439032F
:1009F00060E083E00E94EF0160E082E00E94EF018E
:100A000061E084E00E94EF0164E670E080E090E045
:100A10000E94820260E084E00E94EF0164E670E0E0
:100A200080E090E00E94820261E084E00E94EF0199
:100A300068EC70E080E090E00E94820261E086E075
:100A40000E94EF0188EB90E00E94E5028BEA90E0C3
:100A50000E94E50280E890E00E94E50241E050E05B
:100A60006CE770E086E30E94B50241E050E06DE77C
:100A700070E086E30E94B50250E040E070E060E084
:100A80008CE20E94B50260E086E00E94EF01F894DB
:100A900040E050E56FE130E08BB1962F232F27FD2A
:100AA000886027FF877F8BB984608BB98B7F8BB978
:100AB00026FD886026FF877F8BB984608BB98B7F8A
:100AC0008BB925FD886025FF877F8BB984608BB942
:100AD0008B7F8BB924FD886024FF877F8BB984606E
:100AE0008BB98B7F8BB923FD886023FF877F8BB900
:100AF00084608BB98B7F8BB922FD886022FF877F52
:100B00008BB984608BB98B7F8BB921FD886021FF05
:100B1000877F8BB984608BB98B7F8BB920FD886010
:100B200020FF877F8BB984608BB98B7F8BB997FD52
:100B3000886097FF877F8BB984608BB98B7F8BB977
:100B400096FD886096FF877F8BB984608BB98B7F19
:100B50008BB995FD886095FF877F8BB984608BB9D1
:100B60008B7F8BB994FD886094FF877F8BB98460FD
:100B70008BB98B7F8BB993FD886093FF877F8BB98F
:100B800084608BB98B7F8BB992FD886092FF877FE1
:100B90008BB984608BB98B7F8BB991FD886091FF95
:100BA000877F8BB984608BB98B7F8BB990FD886010
:100BB00090FF877F8BB984608BB98B7F8BB9415055
:100BC000510909F069CF789400E010E068EE73E015
:100BD00080E090E00E94820201151105B9F30E94A5
:100BE0004C01882399F30E940000F0CFE1E5F1E089
:100BF0001382128288EE93E0A0E0B0E084839583B4
:100C0000A683B78384E091E09183808385EC90E0B4
:100C10009587848784EC90E09787868780EC90E0C6
:100C2000918B808B81EC90E0938B828B82EC90E0B7
:100C3000958B848B86EC90E0978B868B118E128E31
:100C4000138E148E0895EE0FFF1F0590F491E02D82
:100C50000994AEE0B0E0EFE2F6E00C94D8080D891C
:100C60001E8986E08C831A8309838FEF9FE79E831A
:100C70008D83AE01475E5F4F6F89788DCE010196FF
:100C80000E944C062F813885020F131FF801108235
:100C90002E96E4E00C94F408ABE0B0E0E2E5F6E078
:100CA0000C94CA087C013B018A01FC011782168260
:100CB000838181FFC8C1CE0101965C01F701938158
:100CC000F30193FD859193FF81913F01882309F4FE
:100CD00053C1853239F493FD859193FF81913F0192
:100CE000853229F4B70190E00E943C08E7CF912CAF
:100CF000212C312CFFE1F31538F08B3211F190F4F7
:100D0000803209F1833229F137FC3CC020ED280FF5
:100D10002A3050F536FE20C08AE0989E200D11241E
:100D2000922E06C08D3291F0803371F7689430F8BE
:100D3000F30193FD859193FF81913F018111DACFFA
:100D400021C0689431F8689432F8F2CF689433F88F
:100D5000EFCF689434F8ECCFEAE02E9E200D1124FA
:100D6000222E689435F8E4CF8E3229F436FC04C183
:100D7000689436F8DDCF8C3619F4689437F8D8CFFC
:100D80008836B1F2982F9F7D95549330E0F08336EA
:100D9000A1F18337C1F1833509F063C02801F2E086
:100DA0004F0E511CF801C080D180692D70E036FCD7
:100DB00002C06FEF7FEFC6010E9426084C016894C5
:100DC00037F882010AC00C5F1F4FFFE3F9838824C4
:100DD0008394912C6501E89437F833FE2DC0522C92
:100DE0008114910471F5552009F468CFB70180E2B0
:100DF00090E00E943C085A94F6CFF80180818983E4
:100E00000E5F1F4FE4CF2801F2E04F0E511CF80196
:100E1000C080D180692D70E036FC02C06FEF7FEF9B
:100E2000C6010E9431084C018201D5CFB70180E292
:100E300090E00E943C082A942814190409F0B0F7A5
:100E4000CECFF60137FC859137FE81916F01B70156
:100E500090E00E943C0851105A94F1E08F1A9108DA
:100E6000BFCF843619F0893609F077C0F80137FE14
:100E70006BC060817181828193810C5F1F4FF32D64
:100E8000FF763F2E97FF09C09095809570956195EC
:100E90007F4F8F4F9F4F689437F82AE030E0A501CD
:100EA0000E946C08C82ECA188C2C432C36FE0CC02D
:100EB000E89440F8C91440F434FE05C032FC03C085
:100EC000F32DFE7E4F2E892C44FE95C0FE01EC0DC5
:100ED000F11D8081803309F087C0242D297E422EA8
:100EE000842D8870582E43FC95C040FE8FC09C2CEA
:100EF000821418F42C0C922C981844FE91C0B7015F
:100F000080E390E00E943C0842FE09C088E790E040
:100F100041FE02C088E590E0B7010E943C08C91478
:100F200008F48AC0CA94D12C9FEFC91AD90ACA0CF6
:100F3000DB1CF60182916F01B70190E00E943C0832
:100F4000AC14BD04B1F74FCF60817181072E000C46
:100F5000880B990B0E5F1F4F92CFD32CE894D4F8D7
:100F60002AE030E0853739F1232D297FD22E8F36C4
:100F700001F148F48835A9F0F701868197812B9615
:100F8000E2E10C94E608803749F08837A9F7D4FEEF
:100F900002C06894D2F820E130E00DC06894D4F823
:100FA000F6CF34FE03C0822F8660D82E20E132E0D7
:100FB00002C028E030E0F801D7FE0FC060817181E7
:100FC000828193810C5F1F4FA5010E946C08C82E7F
:100FD000CA183D2CE89437F867CF6081718190E0A2
:100FE00080E00E5F1F4FF0CF42FC02C0839478CFA9
:100FF0008394839475CF842D867809F471CFF6CFCE
:10100000B70180E290E00E943C0883948214C0F310
:10101000512C73CF522C5818821408F46ECFF8CF8D
:10102000842D867809F47BCF8BE241FE80E247FC79
:101030008DE2B70190E071CFB70180E390E00E94AC
:101040003C089A946CCF8FEF9FEF99CFFC010590ED
:10105000615070400110D8F7809590958E0F9F1FBA
:101060000895FC016150704001900110D8F78095FF
:1010700090958E0F9F1F08950F931F93CF93DF932B
:10108000182F092FEB018B8181FD09C01FEF0FEF96
:10109000812F902FDF91CF911F910F91089582FFA3
:1010A00014C02E813F818C819D81281739073CF423
:1010B000E881F981CF0101969983888310838E811D
:1010C0009F8101969F838E83E3CFE885F985812FE9
:1010D0000995892BA1F3DACFFA01AA27283051F11B
:1010E000203181F1E8946F936E7F6E5F7F4F8F4F59
:1010F0009F4FAF4FB1E03ED0B4E03CD0670F781FB8
:10110000891F9A1FA11D680F791F8A1F911DA11D9C
:101110006A0F711D811D911DA11D20D009F46894D5
:101120003F912AE0269F11243019305D3193DEF67D
:10113000CF010895462F4770405D4193B3E00FD033
:10114000C9F7F6CF462F4F70405D4A3318F0495D1E
:1011500031FD4052419302D0A9F7EACFB4E0A69501
:101160009795879577956795BA95C9F70097610523
:10117000710508959B01AC010A2E06945795479579
:1011800037952795BA95C9F7620F731F841F951F6E
:10119000A01D08952F923F924F925F926F927F927F
:1011A0008F929F92AF92BF92CF92DF92EF92FF9277
:1011B0000F931F93CF93DF93CDB7DEB7CA1BDB0B23
:1011C0000FB6F894DEBF0FBECDBF09942A883988C8
:1011D00048885F846E847D848C849B84AA84B984CF
:1011E000C884DF80EE80FD800C811B81AA81B981DB
:1011F000CE0FD11D0FB6F894DEBF0FBECDBFED01EF
:101200000895F894FFCF000000008201E2000F0172
:10121000CF0140011E0132010D0A00466C61736866
:101220003A20307825303278207C2050524F474D7C
:10123000454D3A20307825303278207C20496E6444
:0E12400069726563743A203078253032780088
:107E0000112484B714BE81FFF0D085E080938100F7
:107E100082E08093C00088E18093C10086E0809377
:107E2000C20080E18093C4008EE0C9D0259A86E02C
:107E300020E33CEF91E0309385002093840096BBD3
:107E4000B09BFECF1D9AA8958150A9F7CC24DD24C4
:107E500088248394B5E0AB2EA1E19A2EF3E0BF2EE7
:107E6000A2D0813461F49FD0082FAFD0023811F036
:107E7000013811F484E001C083E08DD089C08234E0
:107E800011F484E103C0853419F485E0A6D080C0E4
:107E9000853579F488D0E82EFF2485D0082F10E0AE
:107EA000102F00270E291F29000F111F8ED06801E7
:107EB0006FC0863521F484E090D080E0DECF843638
:107EC00009F040C070D06FD0082F6DD080E0C81688
:107ED00080E7D80618F4F601B7BEE895C0E0D1E017
:107EE00062D089930C17E1F7F0E0CF16F0E7DF06D8
:107EF00018F0F601B7BEE89568D007B600FCFDCFD4
:107F0000A601A0E0B1E02C9130E011968C91119780
:107F100090E0982F8827822B932B1296FA010C0160
:107F200087BEE89511244E5F5F4FF1E0A038BF0790
:107F300051F7F601A7BEE89507B600FCFDCF97BE46
:107F4000E89526C08437B1F42ED02DD0F82E2BD052
:107F50003CD0F601EF2C8F010F5F1F4F84911BD097
:107F6000EA94F801C1F70894C11CD11CFA94CF0C13
:107F7000D11C0EC0853739F428D08EE10CD085E9AC
:107F80000AD08FE07ACF813511F488E018D01DD067
:107F900080E101D065CF982F8091C00085FFFCCF94
:107FA0009093C60008958091C00087FFFCCF809118
:107FB000C00084FD01C0A8958091C6000895E0E648
:107FC000F0E098E1908380830895EDDF803219F02E
:107FD00088E0F5DFFFCF84E1DECF1F93182FE3DFCA
:107FE0001150E9F7F2DF1F91089580E0E8DFEE27F6
:047FF000FF270994CA
:027FFE00040479
:00000001FF
